:020000040800F2
:10000000000001204112000891120008911200081E
:1000100091120008911200089112000800000000DF
:100020000000000000000000000000009112000825
:1000300091120008000000009112000891120008BF
:1000400000000000911200089112000891120008AF
:1000500091120008911200089112000891120008F4
:10006000911200089112000891120008000000008F
:100070000000000000000000000000000000000080
:100080000000000000000000D51000080000000083
:1000900000000000000000000000000091120008B5
:1000A00091120008911200089112000891120008A4
:1000B000911200089112000800000000911200083F
:1000C0009112000891120008911200089112000884
:1000D0009112000800000000000000000000000075
:1000E000911200089112000891120008000000000F
:1000F0000000000000000000000000000000000000
:100100000000000091120008000000009112000899
:1001100000000000000000000000000000000000DF
:1001200000000000000000000000000000000000CF
:1001300000000000000000000000000000000000BF
:100140000000000000000000000000009112000804
:10015000000000000000000000000000000000009F
:100160009112000891120008000000000000000039
:10017000000000000000000000000000000000007F
:1001800000000000911200080000000000000000C4
:0401900091120008C0
:1001980010B5054C237833B9044B13B10448AFF3B9
:1001A80000800123237010BD2C04002000000000F3
:1001B800B414000808B5034B1BB103490348AFF357
:1001C800008008BD0000000030040020B4140008BE
:1001D80081F0004102E000BF83F0004330B54FEAF0
:1001E80041044FEA430594EA050F08BF90EA020F5D
:1001F8001FBF54EA000C55EA020C7FEA645C7FEAF0
:10020800655C00F0E2804FEA5454D4EB5555B8BF12
:100218006D420CDD2C4480EA020281EA030382EA83
:10022800000083EA010180EA020281EA0303362D15
:1002380088BF30BD11F0004F4FEA01314FF4801CE8
:100248004CEA113102D0404261EB410113F0004FFA
:100258004FEA03334CEA133302D0524263EB4303B1
:1002680094EA050F00F0A780A4F10104D5F1200E4F
:100278000DDB02FA0EFC22FA05F2801841F10001AA
:1002880003FA0EF2801843FA05F359410EE0A5F17E
:1002980020050EF1200E012A03FA0EFC28BF4CF0AF
:1002A800020C43FA05F3C01851EBE37101F0004565
:1002B80007D54FF0000EDCF1000C7EEB00006EEB72
:1002C8000101B1F5801F1BD3B1F5001F0CD34908FC
:1002D8005FEA30004FEA3C0C04F101044FEA445253
:1002E80012F5800F80F09A80BCF1004F08BF5FEADA
:1002F800500C50F1000041EB045141EA050130BDBA
:100308005FEA4C0C404141EB010111F4801FA4F15C
:100318000104E9D191F0000F04BF01460020B1FAB1
:1003280081F308BF2033A3F10B03B3F120020CDAE9
:100338000C3208DD02F1140CC2F10C0201FA0CF0C7
:1003480021FA02F10CE002F11402D8BFC2F1200C2C
:1003580001FA02F120FA0CFCDCBF41EA0C019040E2
:10036800E41AA2BF01EB0451294330BD6FEA04042B
:100378001F3C1CDA0C340EDC04F11404C4F1200216
:1003880020FA04F001FA02F340EA030021FA04F328
:1003980045EA030130BDC4F10C04C4F1200220FA7F
:1003A80002F001FA04F340EA0300294630BD21FABD
:1003B80004F0294630BD94F0000F83F4801306BF83
:1003C80081F480110134013D4EE77FEA645C18BF77
:1003D8007FEA655C29D094EA050F08BF90EA020F0E
:1003E80005D054EA000C04BF1946104630BD91EA06
:1003F800030F1EBF0021002030BD5FEA545C05D109
:100408004000494128BF41F0004130BD14F5800447
:100418003CBF01F5801130BD01F0004545F0FE41BB
:1004280041F470014FF0000030BD7FEA645C1ABFF0
:10043800194610467FEA655C1CBF0B46024650EA27
:10044800013406BF52EA033591EA030F41F4002153
:1004580030BD00BF90F0000F04BF0021704730B5D9
:100468004FF4806404F132044FF000054FF00001AE
:1004780050E700BF90F0000F04BF0021704730B56F
:100488004FF4806404F1320410F0004548BF404244
:100498004FF000013EE700BF42004FEAE2014FEA99
:1004A80031014FEA02701FBF12F07F4393F07F4F74
:1004B80081F06051704732F07F4208BF704793F077
:1004C8007F4F04BF41F40021704730B54FF460748A
:1004D80001F0004521F000411CE700BF50EA01028D
:1004E80008BF704730B54FF000050AE050EA010236
:1004F80008BF704730B511F0004502D5404261EBA6
:1005080041014FF4806404F132045FEA915C3FF4E6
:10051800D8AE4FF003025FEADC0C18BF03325FEA83
:10052800DC0C18BF033202EBDC02C2F1200300FA34
:1005380003FC20FA02F001FA03FE40EA0E0021FA59
:1005480002F11444BDE600BF70B54FF0FF0C4CF447
:10055800E06C1CEA11541DBF1CEA135594EA0C0FF9
:1005680095EA0C0F00F0DEF82C4481EA030621EA34
:100578004C5123EA4C5350EA013518BF52EA03356F
:1005880041F4801143F4801338D0A0FB02CE4FF021
:100598000005E1FB02E506F00042E0FB03E54FF051
:1005A8000006E1FB03569CF0000F18BF4EF0010E49
:1005B800A4F1FF04B6F5007F64F5407404D25FEA45
:1005C8004E0E6D4146EB060642EAC62141EA5551F8
:1005D8004FEAC52040EA5E504FEACE2EB4F1FD0C3A
:1005E80088BFBCF5E06F1ED8BEF1004F08BF5FEAB8
:1005F800500E50F1000041EB045170BD06F000466A
:1006080046EA010140EA020081EA0301B4EB5C0416
:10061800C2BFD4EB0C0541EA045170BD41F480110E
:100628004FF0000E013C00F3AB8014F1360FDEBF33
:10063800002001F0004170BDC4F10004203C35DA0F
:100648000C341BDC04F11404C4F1200500FA05F392
:1006580020FA04F001FA05F240EA020001F0004233
:1006680021F0004110EBD37021FA04F642EB0601A9
:100678005EEA430E08BF20EAD37070BDC4F10C04D3
:10068800C4F1200500FA04F320FA05F001FA04F297
:1006980040EA020001F0004110EBD37041F1000183
:1006A8005EEA430E08BF20EAD37070BDC4F120058E
:1006B80000FA05F24EEA020E20FA04F301FA05F2F6
:1006C80043EA020321FA04F001F0004121FA04F29E
:1006D80020EA020000EBD3705EEA430E08BF20EA6E
:1006E800D37070BD94F0000F0FD101F000464000A8
:1006F80041EB010111F4801F08BF013CF7D041EA2A
:10070800060195F0000F18BF704703F0004652002D
:1007180043EB030313F4801F08BF013DF7D043EAFE
:100728000603704794EA0C0F0CEA135518BF95EAB4
:100738000C0F0CD050EA410618BF52EA4306D1D13B
:1007480081EA030101F000414FF0000070BD50EA5A
:10075800410606BF1046194652EA430619D094EAE4
:100768000C0F02D150EA013613D195EA0C0F05D1CE
:1007780052EA03361CBF104619460AD181EA030122
:1007880001F0004141F0FE4141F470014FF00000DA
:1007980070BD41F0FE4141F4780170BD70B54FF075
:1007A800FF0C4CF4E06C1CEA11541DBF1CEA1355F5
:1007B80094EA0C0F95EA0C0F00F0A7F8A4EB0504D7
:1007C80081EA030E52EA03354FEA013100F08880CE
:1007D8004FEA03334FF0805545EA131343EA126397
:1007E8004FEA022245EA111545EA10654FEA00264C
:1007F8000EF000419D4208BF964244F1FD0404F505
:10080800407402D25B084FEA3202B61A65EB030560
:100818005B084FEA32024FF480104FF4002CB6EB1D
:10082800020E75EB030E22BFB61A754640EA0C009D
:100838005B084FEA3202B6EB020E75EB030E22BFDD
:10084800B61A754640EA5C005B084FEA3202B6EB1E
:10085800020E75EB030E22BFB61A754640EA9C00DD
:100868005B084FEA3202B6EB020E75EB030E22BFAD
:10087800B61A754640EADC0055EA060E18D04FEA6B
:10088800051545EA16754FEA06164FEAC30343EA0B
:1008980052734FEAC2025FEA1C1CC0D111F4801FD8
:1008A8000BD141EA00014FF000004FF0004CB6E7D1
:1008B80011F4801F04BF01430020B4F1FD0C88BF70
:1008C800BCF5E06F3FF6AFAEB5EB030C04BFB6EB7B
:1008D800020C5FEA500C50F1000041EB045170BD6E
:1008E8000EF0004E4EEA113114EB5C04C2BFD4EB9B
:1008F8000C0541EA045170BD41F480114FF0000E1F
:10090800013C90E645EA060E8DE60CEA135594EA9A
:100918000C0F08BF95EA0C0F3FF43BAF94EA0C0F9D
:100928000AD150EA01347FF434AF95EA0C0F7FF412
:1009380025AF104619462CE795EA0C0F06D152EA66
:1009480003353FF4FDAE1046194622E750EA41064A
:1009580018BF52EA43067FF4C5AE50EA41047FF45B
:100968000DAF52EA43057FF4EBAE12E74FEA4102BE
:10097800B2F1E04324BFB3F5001CDCF1FE5C0DD9F5
:1009880001F0004C4FEAC0024CEA5070B2F1004F3F
:1009980040EB830008BF20F00100704711F0804F42
:1009A80021D113F13872BCBF01F00040704741F407
:1009B80080114FEA5252C2F11802C2F1200C10FA0B
:1009C8000CF320FA02F018BF40F001004FEAC123EF
:1009D8004FEAD32303FA0CFC40EA0C0023FA02F393
:1009E8004FEA4303CCE77FEA625307D150EA013369
:1009F8001EBF4FF0FE4040F44000704701F0004039
:100A080040F0FE4040F40000704700BF80B483B05F
:100A180000AF7860464B5B6C454A43F4807353647F
:100A2800444B5B68434A23F020035360424B1B68E6
:100A3800414A43F4802313603E4B5B683D4A43F0D0
:100A4800200353607B685B78002B06D1394B9B6889
:100A5800384A23F00203936009E07B685B78012B36
:100A680005D1344B9B68334A43F0020393607B689B
:100A78001B78032B3ED801A252F823F0950A0008F0
:100A8800AF0A0008C90A0008E30A0008294B5B6896
:100A9800284A23F080735360264B5B68254A23F06D
:100AA8000073536032E0234B5B68224A43F0807343
:100AB8005360204B5B681F4A23F00073536025E0A6
:100AC8001C4B5B681B4A23F080735360194B5B68AF
:100AD800184A43F00073536018E0164B5B68154AD8
:100AE80043F080735360134B5B68124A43F0007302
:100AF80053600BE00F4B5B680E4A23F08073536022
:100B08000C4B5B680B4A23F000735360094B9B68DE
:100B1800084A43F001039360064B9B68054A23F497
:100B28000063936000BF0C37BD465DF8047B7047D7
:100B3800003802400020014000E100E080B483B0AA
:100B480000AF0346FB71184BDB6A174A23F4801386
:100B5800D362154BDB6A144A23F40013D362124B99
:100B6800DB6A114A23F48003D3620F4BDB6A0E4A17
:100B780023F40003D3620C4B5B6B0B4A23F01F0377
:100B88005363094B5A6BFB79074913434B63064B75
:100B98009B68054A43F08043936000BF0C37BD460D
:100BA8005DF8047B704700BF0020014080B584B029
:100BB80002AF00230093002301220221184800F00D
:100BC80041F900230093002301220321144800F077
:100BD80039F900230093002301220421104800F072
:100BE80031F900237B600BE07B68D9B200230093C6
:100BF800012301220B4800F025F97B6801337B6053
:100C08007B68072BF0DD382000F00EF80C2000F090
:100C18000BF8012000F008F800BF0837BD4680BD7A
:100C2800000002400004024080B588B000AF0346CF
:100C3800FB7100220321334800F0A2F900220221AF
:100C4800304800F09DF90023FB6102E0FB690133A5
:100C5800FB61FB6941F287329342F7DD0023BB61F8
:100C680002E0BB690133BB61BB6941F28732934241
:100C7800F7DD01220421234800F082F900237B617B
:100C880002E07B6901337B617B6941F287329342E1
:100C9800F7DD00233B6112E03B69D9B201223B69D1
:100CA80002FA03F35AB297F9073013405BB2DBB28A
:100CB8001A46154800F064F93B6901333B613B690A
:100CC800072BE9DD0023FB6002E0FB680133FB60D2
:100CD800FB6841F287329342F7DD0022042109487C
:100CE80000F04EF90023BB6002E0BB680133BB6033
:100CF800BB6841F287329342F7DD00BF2037BD461B
:100D080080BD00BF000002400004024080B588B0EA
:100D180000AF0346FB71002203212D4800F030F993
:100D2800012202212A4800F02BF90023FB6102E08E
:100D3800FB690133FB61FB6941F287329342F7DDBE
:100D480001220421224800F01BF90023BB6102E0C4
:100D5800BB690133BB61BB6941F287329342F7DD5E
:100D680000237B6112E07B69D9B201227B6902FA18
:100D780003F35AB297F9073013405BB2DBB21A4655
:100D8800144800F0FDF87B6901337B617B69072B10
:100D9800E9DD00233B6102E03B6901333B613B69CC
:100DA80041F287329342F7DD00220421084800F01F
:100DB800E7F80023FB6002E0FB680133FB60FB6897
:100DC80041F287329342F7DD00BF2037BD4680BD30
:100DD800000002400004024080B584B000AF786093
:100DE8000023FB7309E0FB7B7A6813441B781846E1
:100DF800FFF78CFFFB7B0133FB73FB7B7A681344A3
:100E08001B78002BEFD100BF1037BD4680BD80B5E1
:100E180086B000AF78607B6807F108010A2218469F
:100E280000F074FA07F108031846FFF7D5FF00BF72
:100E38001837BD4680BD80B500AF0120FFF7F4FE2E
:100E480000BF80BD80B483B000AF7860084611460B
:100E58001A460346FB700B46BB7013467B70474B24
:100E68001A6B7B78012101FA03F3444913430B639E
:100E7800BB78012B16D17B681A68FB785B000121CF
:100E880001FA03F31A437B681A607B681A68FB78D7
:100E98005B000133012101FA03F3DB431A407B684D
:100EA8001A6065E0BB78002B4AD17B681A68FB782A
:100EB8005B00012101FA03F3DB431A407B681A60E7
:100EC8007B681A68FB785B000133012101FA03F3A0
:100ED800DB431A407B681A603B7C002B16D07B688A
:100EE800DA68FB785B00012101FA03F31A437B6897
:100EF800DA607B68DA68FB785B000133012101FA6C
:100F080003F3DB431A407B68DA6031E03B7C002B5B
:100F18002ED17B68DA68FB785B00012101FA03F3C4
:100F2800DB431A407B68DA607B68DA68FB785B0031
:100F38000133012101FA03F31A437B68DA6017E0F1
:100F4800BB78022B14D17B681A68FB785B000121FF
:100F580001FA03F31A437B681A607B681A68FB7806
:100F68005B000133012101FA03F31A437B681A601D
:100F780000BF0C37BD465DF8047B7047003802405F
:100F880080B483B000AF78600B46FB701346BB702B
:100F98007B681A68FB785B00012101FA03F31340B0
:100FA800002B18D0BB78002B09D07B685A69FB78D6
:100FB800012101FA03F31A437B685A6109E07B684F
:100FC8005A69FB78012101FA03F3DB431A407B6875
:100FD8005A61002300E0012318460C37BD465DF82E
:100FE800047B704780B586B002AFFFF7DFFD0023B2
:100FF80000930023022201210D48FFF723FF052358
:10100800BB6000233B7100237B713B1D1846FFF733
:10101800FDFC0023FB6002E0FB680133FB60FB681A
:10102800044A9342F8DD0120FFF788FDF1E700BF8D
:1010380000000240DF93040098B500AFFFF7FBFE05
:101048001D4BDB6C9AB21D4B1A801D48FFF7C4FE7E
:101058001A4B1B8807EE903AB8EE677ADFED196AEB
:10106800C7EE267AB1EE047A67EE877A164BC3ED9F
:10107800007A154B1B681846FFF70EFA0CA3D3E944
:101088000023FFF78BFB03460C4618462146FFF763
:101098006DFC02460C4B1A600B4BD3ED007AFCEE4C
:1010A800E77A17EE900AFFF7B2FE00BF98BD00BFBF
:1010B8007B14AE47E17A843F002001404A040020B7
:1010C800CC140008000080454C04002080B500AF17
:1010D800FFF7B2FF00BF80BD80B500AF164BD3F855
:1010E8008830154A43F47003C2F88830134B1B68E4
:1010F800124A43F001031360104B00229A600F4B11
:101108001B680E4A23F0847323F4803313600B4B5F
:101118000B4A5A60094B1B68084A23F48023136062
:10112800064B0022DA6000F00DF8034B4FF0006226
:101138009A6000BF80BD00BF00ED00E000380240AB
:101148001030002480B483B000AF00237B600023FC
:101158003B60354B1B68344A43F480331360324B91
:101168001B6803F400333B607B6801337B603B689A
:10117800002B03D17B68B3F5A04FF0D12A4B1B6835
:1011880003F40033002B02D001233B6001E000236D
:101198003B603B68012B40D1234B1B6C224A43F038
:1011A80080531364214B1B68204A43F44043136067
:1011B8001D4B1D4A9B6893601B4B1B4A9B689360A1
:1011C800194B9B68184A43F480539360164B184A8E
:1011D8005A60154B1B68144A43F08073136000BFB4
:1011E800114B1B6803F00073002BF9D0114B40F230
:1011F80002721A600C4B9B680B4A23F0030393603E
:10120800094B9B68084A43F00203936000BF064BF2
:101218009B6803F00C03082BF9D100BF0C37BD46BF
:101228005DF8047B704700BF003802400070004042
:1012380019544107003C02400D4885460D480E49A7
:101248000E4A002302E0D458C4500433C4188C4218
:10125800F9D30B4A0B4C002301E013600432A2427D
:10126800FBD3FFF739FF00F011F8FFF7BBFEFEE7ED
:1012780000000120000000202C0400200C150008AC
:101288002C04002074040020FEE7000070B50D4E09
:101298000D4D761BB61006D00024013455F8043BDA
:1012A8009847A642F9D1094E094D761B00F0FEF881
:1012B800B61006D00024013455F8043B9847A642DE
:1012C800F9D170BD001500080015000808150008C0
:1012D80000150008931E222B15D80A2A10B50B46B4
:1012E80005D00C46194600F013F8204610BD00281A
:1012F800F7DA2D2403F8014B40420C46194600F05A
:1013080007F8204610BD002008707047FFF7E2BFBD
:10131800F0B4DFF878C0174604460E46BCE80F0064
:101328008AB06D460FC5BCE80F000FC59CE80300E6
:10133800BB1E45F8040B222B297023D8751E28469E
:10134800002200E01A46B4FBF7F10AAB07FB114490
:1013580023440C4613F8283C00F8013F531C00298D
:10136800F0D1F15452B1334413F8011D15F8010FAF
:1013780029700134111B8C421870F5DB30460AB015
:10138800F0BC704700203070F9E700BFD81400089F
:10139800024B13B1024800F005B870470000000086
:1013A800B9130008002301461A46184600F01EB873
:1013B80038B50A4C0A4D641BA4100AD004F18043C6
:1013C800013B05EB8305013C55F804399847002C8F
:1013D800F9D1BDE8384000F06FB800BF0C1500081F
:1013E80008150008704700BF704700BF2DE9F84393
:1013F8002B4D0646286898460F469146FFF7F2FFA0
:10140800284B1C68D4F84831002B3DD05A681F2A55
:101418000DDC02F1010C16BB0232C3F804C02868C7
:1014280043F82270FFF7E0FF0020BDE8F8831E4B69
:101438007BB34FF4C870AFF30080034648B3D4F8C9
:1014480048210021C0E900214FF0010CC4F84801EF
:101458000A46C0F88811C0F88C11002EDCD003EBC6
:1014680082010124C1F88890D3F888019440204370
:10147800022EC3F88801C1F80881CDD1D3F88C11A8
:101488000C43C3F88C41C7E704F5A673C4F8483188
:10149800BCE72868FFF7A8FF4FF0FF30C5E700BF9B
:1014A80028040020D414000800000000F8B500BF8C
:1014B800F8BC08BC9E467047F8B500BFF8BC08BC2D
:0414C8009E46704785
:1014CC0074656D703A00000000000020303132333A
:1014DC003435363738396162636465666768696AC2
:1014EC006B6C6D6E6F707172737475767778797AC8
:0414FC0000000000EC
:0815000099130008BD01000869
:04150800990100083D
:10150C0000000000EC02002054030020BC0300206B
:10151C0000000000000000000000000000000000BF
:10152C0000000000000000000000000000000000AF
:10153C00000000000000000000000000000000009F
:10154C00000000000000000000000000000000008F
:10155C00000000000000000000000000000000007F
:10156C00000000000000000000000000000000006F
:10157C00000000000000000000000000000000005F
:10158C00000000000000000000000000000000004F
:10159C00000000000000000000000000000000003F
:1015AC00000000000000000001000000000000002E
:1015BC000E33CDAB34126DE6ECDE05000B000000F3
:1015CC00000000000000000000000000000000000F
:1015DC0000000000000000000000000000000000FF
:1015EC0000000000000000000000000000000000EF
:1015FC0000000000000000000000000000000000DF
:0C192C000000000000000000500400203B
:04000005080012419C
:00000001FF
